:020000040000FA
:10000000880500206D0200007102000073020000EC
:100010007502000077020000790200000000000075
:100020000000000000000000000000007B02000053
:100030007D020000000000007F020000810200003D
:10004000830200008302000083020000830200009C
:10005000830200008302000083020000830200008C
:10006000830200008302000083020000830200007C
:10007000830200008302000083020000830200006C
:10008000830200008302000083020000830200005C
:10009000830200008302000083020000830200004C
:1000A000830200008302000083020000830200003C
:1000B0008302000083020000951700008302000005
:1000C000830200008302000083020000830200001C
:1000D000830200008302000083020000830200000C
:1000E00083020000830200008302000083020000FC
:1000F00083020000830200008302000083020000EC
:1001000083020000830200008302000083020000DB
:1001100083020000830200008302000083020000CB
:1001200083020000830200008302000083020000BB
:1001300083020000830200008302000083020000AB
:1001400000000000000000000000000000000000AF
:10015000830200008302000083020000830200008B
:10016000000000000000000000000000000000008F
:10017000000000000000000000000000000000007F
:10018000000000000000000000000000000000006F
:10019000000000000000000000000000000000005F
:1001A000000000000000000000000000000000004F
:1001B000830200008302000083020000830200002B
:1001C000830200008302000083020000830200001B
:1001D000830200008302000083020000830200000B
:1001E00083020000830200008302000083020000FB
:1001F00083020000830200008302000083020000EB
:10020000830200008302000083020000000000005F
:1002100083020000830200008302000083020000CA
:1002200083020000830200008302000083020000BA
:1002300083020000830200008302000083020000AA
:10024000830200008302000083020000830200009A
:10025000830200008302000083020000830200008A
:1002600083020000830200008302000000F00AB84D
:10027000FEE7FEE7FEE7FEE7FEE7FEE7FEE7FEE756
:10028000FEE7FEE700F002F800F0A6F814A696E8F4
:10029000000CB244B344DA4501D100F09DF8BAE84D
:1002A0000F000FA696E83000A5EB040504EB060747
:1002B000AAEB0704A7F101074FEA15154FEA34141A
:1002C000A4F10104AC4201D300F086F813F0010F51
:1002D00018BFFB1A43F0010300F001F8DBE71847F1
:1002E0006C5B00008C5B0000103A24BF78C878C1BA
:1002F000FAD8520724BF30C830C144BF04680C602C
:1003000070470000704700000023002400250026ED
:10031000103A28BF78C1FBD8520728BF30C148BF68
:100320000B6070476E2900F06581702900F0A7828C
:10033000662905F03682652905F03382672905F0C4
:100340003082612905F02F8203681B0A28BF41F023
:100350008001692900F01281642900F00F8175295C
:1003600000F00C816F2900F03582782900F073824B
:10037000E92900F0CF81E42900F0CC81F52900F0D3
:10038000C981EF2900F03282F82900F072820368F7
:10039000DB0928BF41F08001632900F077877329CA
:1003A00000F07C87E32900F08787F32900F08C8731
:1003B000002070471FB500F0E1FF0400002000217D
:1003C00004F010F8401C60600020002103F0F4FFEE
:1003D000E0601FBD10B510BD00F0A2FF1146FFF791
:1003E000E9FF02F08BFC01F07FF803B4FFF7F2FFA6
:1003F00003BC01F0C3F8000072B6704762B67047E4
:10040000EFF3108072B6704780F31088704730BFEA
:10041000704702480249014A024B70478801002098
:1004200088050020880100200FB41CB5084B06AADF
:100430007B4469460090059800F0F5F804460020DA
:10044000694600F003F920461CBC5DF814FB00006F
:100450001902000040EA0103024630B59B0710D1A3
:100460004FF0013400E008C208C91D1B9D4315EA86
:10047000C41FF8D013F0FF0102F8011B0DD01B0AB6
:10048000F8E711F8013B002B02F8013B05D011F809
:10049000013B002B02F8013BF3D130BD70477047A0
:1004A000704710B500F0BAFA006810BD10B50446E8
:1004B00000F0B4FA046010BD70B5044685690068A8
:1004C000C10601D5302600E02026C00707D070BD48
:1004D000D4E9012130469047206A401C20626D1EFD
:1004E000F6D570BD70B5044685690078C00707D1A0
:1004F00070BDD4E9012120209047206A401C206271
:100500006D1EF6D570BD09684A0501D540B2704729
:10051000C905FCD500B2704709684A0501D5C0B2CB
:100520007047C905FCD580B2704770B50C460546CA
:10053000012A05D02878800600D5EA69002302E068
:10054000012305E05B1C934202D2E05C0028F9D154
:10055000A869E618C01AA861286A184428622846C3
:10056000FFF7AAFF04E0D5E9012114F8010B904739
:10057000B442F8D32846FFF7B5FF70BD2DE9F0412E
:100580000646002410687529314616A510D0FFF7DD
:10059000BAFF002802DA404213A507E031688A0753
:1005A00001D512A502E0490704D511A5012401E0F7
:1005B000FFF7B2FF00210A2206F1240709E0B0FB91
:1005C000F2FCB0FBF2F302FB1C003030785418460A
:1005D000491C0028F3D123462A463046BDE8F041A5
:1005E00000F065BA000000002D0000002B000000A4
:1005F0002000000011680268006A530501D50870E8
:100600000AE0D30501D5088006E0130603D5C2171A
:10061000C1E9000200E008600120704701694A1C3E
:1006200002610878704700B58FB0CDE90131002133
:10063000059105497944CDE903101146684600F05B
:1006400029F90FB000BD0000E5FFFFFF0A6802F8BE
:10065000010B0A60704700002DE9FF5F15468A46CE
:100660000446DFF8AC80F8440027D8E900103E4685
:10067000CDE9001010E03AF816106A4602A800F022
:1006800027FE411C07D02178890603D5E269391875
:1006900091420DD80744761C2078800602D5E06987
:1006A000B84205DDAE42E6DB3AF816000028E2D19A
:1006B000A069C01BA0612046FFF7FEFED8E900102C
:1006C000CDE90010002017E03AF818106A4602A899
:1006D00000F0FEFDB0F1FF3F81460BD000250DF18B
:1006E000080B05E0D4E901211BF8050090476D1CBB
:1006F0004D45F7D308F10100B0428046E4DB206AA3
:10070000384420622046FFF7EDFEBDE8FF9F000061
:10071000565300002DE9F0418046D21D22F0070219
:100720000025D2E90002F52915A614D0011E72F1A8
:10073000000106DA0023D0EB030063EB020211A6EE
:1007400008E0D8F800108B0701D50FA602E0490792
:1007500001D50EA601251146002408F1240704E066
:1007600000F060F930323A55641C50EA0102F7D1CA
:100770002B46324621464046BDE8F04100F097B98D
:10078000000000002D0000002B00000020000000F1
:1007900030B4002100F1240408E002F00705D2087B
:1007A000303542EA4372DB086554491C52EA0305BE
:1007B000F3D10468002310A2250708D504F0200413
:1007C0000C4304D0C46901230CA2641EC46130BC74
:1007D00000F06DB910B5044621461068FFF79CFE85
:1007E00002462046BDE810400023D1E7D21D22F08A
:1007F0000701D1E90023CBE7000000003000000032
:10080000F0B40D460188090502D5214C7C4402E074
:100810001F4C7C440E34002100F1240608E002F055
:100820000F071209E75D42EA03721B097754491C5E
:1008300052EA0307F3D102780023120704D5702D82
:1008400006D009B1022311342246F0BC00F02FB9C2
:1008500001231034F8E770B504460D4621461068B0
:10086000FFF75AFE024629462046BDE870400023A5
:10087000C6E7D21D22F00703D3E90023C0E70368CF
:10088000126843F0200303600823C3610023B7E725
:10089000B85100002DE9F05F894604464FF0000A88
:1008A000DFF874B1FB44C0F820A02046E168884717
:1008B000002874D0252806D0D4E901219047206A69
:1008C000401C2062F1E700265F462046E168884729
:1008D0002028054607DB312D05D2781910F8200CA9
:1008E00008B10643F1E7B00701D526F00406C4F8C5
:1008F0001CA00027C4F818A02A2D09D0284602F011
:1009000027FF38B304EB8708303DC8F8185019E0CA
:1009100059F8041B204604EB87029161E16888477F
:10092000012F054618D1E069002820DA26F02006BC
:100930001DE0D8F8180000EB800005EB40003038CF
:10094000C8F818002046E1688847054602F000FF15
:100950000028EED1012F0AD02E2D08D12046E168C3
:1009600088477F1C0546022F46F02006C4DBA0699D
:10097000002803DA404246F00106A061F00701D0EA
:1009800026F010066C2D0BD0682D09D04C2D39D0D7
:100990006A2D35D0742D35D07A2D33D016E038E05D
:1009A000E1682F4620468847B842054609D16C2F9A
:1009B00026D04FF48060E16806432046884705460C
:1009C00004E06C2F1AD04FF4807006430DB3A5F1EC
:1009D0004100192802D8203546F400664A462946C7
:1009E000204626604E46FFF79DFC80B101280BD0C3
:1009F000F61D26F0070000F1080956E74020E4E75D
:100A00008020D8E70020D6E706F104094DE7284604
:100A100052E7206ABDE8F09F485100000048704747
:100A20000800002030B5B0F10A0271F100034FEA6E
:100A3000900E4EEA817EB0EB0E0061EB91014FEA21
:100A4000101E4EEA017E10EB0E0041EB11114FEA31
:100A5000102E4EEA016E10EB0E0041EB11214FEA11
:100A6000104E4EEA014E10EB0E0041EB11414018C2
:100A700041F100014FEAD00040EA41704FEAD10154
:100A80004FEA810444EA907410EB800544EB0104C2
:100A90006D1944EB0404521BA3414FF0000348BFFF
:100AA0000A3200D530BD401C41F1000130BD2DE9B6
:100AB000F0470D4699469246044600F12408016825
:100AC000880604D5E06921F01001216000E00120D2
:100AD000A84201DD471B00E00027A1697A1902EB5B
:100AE0000900081AA0612078C00602D42046FFF74A
:100AF000E3FC002608E0D4E901211AF8060090473B
:100B0000206A401C761C20624E45F4DB2078C0062B
:100B10000AD52046FFF7D0FC06E0D4E901213020B9
:100B20009047206A401C2062381EA7F10107F4DCC0
:100B300007E0D4E9012118F805009047206A401C1D
:100B40002062281EA5F10105F3DC2046FFF7CAFC50
:100B50002078000602D50220BDE8F0870120FBE7DF
:100B60002DE9FF4F0C461E464FF0FF378BB0D2E900
:100B70000001DDF860800A908A46C1F30A5505B984
:100B80003D46002108464FF00000BAF1000F00F486
:100B9000400005DA00EB80004FF4400101EA50000C
:100BA0004FEA9059B9F1010F00DDB9460A9850EAB1
:100BB0004A000ED044F61050A5F2FF3545432F14DD
:100BC000B8F1000F1ED07542291E1EDDC9F10002CA
:100BD0001CE0B8F1010F4FF0000001D0302103E01C
:100BE000F24305E02154401CB042FBDB30460022BA
:100BF000002121540B99C1F80880C1E900200FB0F1
:100C0000BDE8F08FBD1B6D1CDEE74A4600DA694285
:100C100006A800F0F7FB06AB93E8070003AB83E8F8
:100C2000070050460A9902F03EF98DE80700A0F54A
:100C300000501F3800900398002D0ADD42F21F017A
:100C40004A460844002303A90390684602F0A8FB23
:100C500009E0A0F500504A461F38002303A903907D
:100C6000684602F0B2FB8DE807000004000C03D0D8
:100C70004FF0FF30410800E01046B8F1000F03D0FC
:100C80000022009215461EE0751E05D4FFF7CAFE2D
:100C9000303262556D1EF9D5B3460122084302D0A9
:100CA00000227F1C04E02078302801D100227F1E22
:100CB000002A099784D01DE0112D07DAFFF7B2FE54
:100CC000303262556D1C50EA0102F5D1084302D062
:100CD0000098C8B10EE00021681E05E0235C625C4C
:100CE00063542254401E491C8142F7DBAB46A81BCB
:100CF000401E0990002004F80B000B98099AC0F8D8
:100D00000880C0E9002B7AE711264FF0000857E76A
:100D10002DE9F04F88460446D21D22F0070191B01C
:100D2000D1E90001CDE90A0102F086FC02460B98E8
:100D3000C00F01D02D2007E02068810701D52B20AE
:100D400002E0202101EAC000032A099001D0072A0D
:100D500005DB03464146204600F014FB0BE12078FA
:100D6000800601D5E06900E00620B8F1650F8146F4
:100D700006D0B8F1660F18D0B8F1670F70D131E026
:100D80000020B9F1110F009001DB112301E009F1FE
:100D900001030AAA01A90CA8FFF7E2FEDDE90C7025
:100DA000002609F10105834647E001204B460090EB
:100DB0004FF000470AAA01A90CA8FFF7D1FEDDE910
:100DC0000DB00C995D46002610B909F101000D180F
:100DD000B9EB050003D4C0F1FF3609F10105A5EB1D
:100DE00009002BE0B9F1010F01DA4FF001090020F1
:100DF000B9F1110F0090484601DD112300E00346D0
:100E00000AAA01A90CA8FFF7ABFEDDE90C704D465C
:100E100000268346207800070AD4AB4500DA5D46F9
:100E200001A8012D04DD411911F8011C302907D05A
:100E30004F4502DA17F1040F04DA012082460FE071
:100E40006D1EEEE7002F02DCED1B3E4403E0781C34
:100E5000A84200DD7D1CB81B00F1010A4FF00047DD
:100E60002078000703D4AA4501DB4FF0FF3A0021A8
:100E7000B7F1004F0DF143088DF8431024D0022044
:100E80002B23002F01DA7F422D230A21021EA0F11D
:100E9000010000DC5FB197FBF1FC97FBF1F201FB75
:100EA0001C7C17460CF1300C08F801CDEEE7A8F1D8
:100EB000010003702188090501D5452100E0652165
:100EC000A0F1010800F8011C09980FA9A1EB08077F
:100ED000FF1D00B10120411901EBEA70A1693844FE
:100EE000081A401EA0612078C00602D42046FFF7F1
:100EF000E3FA099828B1D4E901219047206A401CFF
:100F000020622078C00622D52046FFF7D5FA1EE0E1
:100F1000002E04DBB34502DD01A8805D00E0302037
:100F2000D4E901219047206A401C2062761CAAF176
:100F300001005FEA000A0AD100F020FAC0680168E7
:100F4000405CD4E901219047206A401C2062281EA1
:100F5000A5F10105DCDC07E0D4E9012118F8010B5B
:100F60009047206A401C2062381EA7F10107F3DC7D
:100F70002046FFF7B7FA032011B041E62DE9F04F04
:100F800004460D46D21D22F0070089B0D0E9009733
:100F90004846394602F050FB0246F80F01D02D2397
:100FA00007E02068810701D52B2302E0202101EA18
:100FB000C0038DF820300BB1012000E00020032A8F
:100FC000824601D0072A04DB2946204600F0DAF9E0
:100FD0003FE12078800601D40D2500E0E569C7F3E4
:100FE0000A560D2D49DA00214FEA175B08464FF0EB
:100FF0000000002F00F4400007DA00EB80004FF4FF
:10100000400100EBD07001EA60008115012901DD8B
:101010004FF0FF3100224FEA850CBCF1180F06D3C8
:101020001346ACF118004FF08052C24003E04FF479
:10103000801323FA0CF30CF10C0CBCF1200F04D339
:10104000ACF1200C09FA0CF001E007FA0CF00029D1
:101050004FF0004801DD18B90FE00ED140450CD328
:1010600019EB02095F4121B9404502D19F4329EAAA
:101070000209BBEB175F00D0761C2088000502D563
:101080007B48784402E07A487844193808AA30232B
:1010900002F80A30037C0AF10101002E0AF1020A6B
:1010A00053546A4602DC4FF0300101E04FF0310149
:1010B0004FF001088DF8001002D0A6F2FF3603E0D1
:1010C00059EA470100D06B4E002D02DC2178090758
:1010D00004D54FF002082E218DF80110C4460021DE
:1010E0000BE0C7F303433F01C35C491C6D1E02F8CC
:1010F0000830052908F1010801DA002DF1DC002192
:101100000CE000EB1973491C1B786D1E082902F8CE
:1011100008304FEA091908F1010801DA002DF0DC66
:1011200021688B0602D516E0A8F10108E04505DD2F
:1011300002EB080313F8013C302BF5D0B8F1000F97
:1011400009DD02EB080313F8013C2E2B03D109073C
:1011500001D4A8F10108002D05DD3E2102F8081098
:101160006D1E08F10108407C002E02F8080008F10D
:10117000010804DA2D20764202F8080002E02B2054
:1011800002F808000A214FF47A70864208F101083B
:101190000BDB96FBF0F3303302F8083096FBF0F3EC
:1011A00008F1010800FB136601E0642E0CDB6420EB
:1011B00096FBF0F3303302F8083096FBF0F308F1B9
:1011C000010800FB136601E00A2E06DB96FBF1F036
:1011D000303002F8080008F1010896FBF1F001FB3D
:1011E0001060303002F80800A16908F1010808EB2E
:1011F000050202EB0A00081AA0612078C00602D49A
:101200002046FFF759F9216A08AE01EB0A00206277
:1012100004E0D4E9012116F8010B9047BAF1010A64
:10122000F7D22078C00602D52046FFF745F96E4672
:1012300009E016F8010B3E280FD0D4E901219047B0
:10124000206A401C2062B8F10108F2D22046FFF764
:1012500049F909B00320BDE8F08F206A28442062D4
:1012600003E0D4E90121302090476D1EEBD3F8E76D
:101270009D49000002FCFFFF10B5436913B1AFF3B5
:10128000008001E0FFF751F9012010BD127800F154
:1012900024010A7000224A700122EDE711684FF024
:1012A000FF32E9E710B5436913B1AFF3008001E005
:1012B000FFF7D2F9012010BD128800F124018284C9
:1012C0000022C2840122EDE711684FF0FF32E9E706
:1012D0002DE9F04116460C46054600F047F8036834
:1012E00093F80101012807D0FF2C12D8185D80B1B6
:1012F00001202C70BDE8F081D3F807013246214669
:1013000003F20713C7182846BC46BDE8F041002386
:1013100060474FF0FF30EDE70048704708000020BD
:101320007546FFF7F9FFAE4605006946534620F0C3
:101330000700854618B020B5FFF76BF8BDE82040E0
:101340004FF000064FF000074FF000084FF0000B81
:10135000AC46ACE8C009ACE8C009ACE8C009ACE8F0
:10136000C00921F007018D467047000010B500F05C
:1013700005F8001D10BD00BF6D300000004870472B
:10138000280000202DE9F0411F460446032601688D
:10139000072A01F4006004DB08B116A505E016A5D4
:1013A00003E008B115A500E015A521F010002060AC
:1013B000A069C01EA0610FB1401EA0612046FFF7CA
:1013C0007BF84FB1D4E9012138469047206A401C90
:1013D0002062C01C206206E0206AFAE7D4E90121FD
:1013E00015F8010B9047761EF8D22046FFF77AF8E1
:1013F000BDE8F0814E414E006E616E00494E4600E0
:10140000696E66002DE9F047814616468AB0354878
:1014100078440DC88DE80D0032487844801C03AC38
:101420000DC884E80D0041F69B300844372190FB3D
:10143000F1F290FBF1F5A5F1800501FB12041B3CD4
:1014400002D56442012000E00020DFF898A0804629
:101450000027FA44AAF1BE0A0EE0E0070AD032469D
:10146000684607EB470101230AEB810101F0ADFF5C
:101470008DE8070064107F1C002CEED1194F7F44CB
:10148000AE3F19E0E80715D007EB04100DF1180A7C
:1014900090E80E008AE80E00C068F04201D1981969
:1014A00008903246012306A903A801F08EFF03AB82
:1014B00083E807006D10641C002DE3D14FF0010399
:1014C00032466946B8F1000F03A802D001F068FF68
:1014D00001E001F07AFFC9E90001C9F808200AB06B
:1014E000BDE8F087A046000010B50446AFF30080C9
:1014F0002046BDE81040FEF778BF00000000000065
:1015000030B44FF0013C50F8042B51F8043BCCFAB6
:1015100052F4D51A20D1FCB950F8042B51F8043BF1
:10152000CCFA52F4D51A17D1B4B950F8042B51F8AB
:10153000043BCCFA52F4D51A0ED16CB950F8042BF6
:1015400051F8043BCCFA52F4D51A05D1002CDAD06C
:1015500030BC4FF00000704729BAB1FA81F111F0A8
:101560001801D1F120008440F2D1CA40CB4012F0E2
:10157000FF0213F0FF0330BCD01A70470149182056
:10158000ABBEFEE726000200704700004EF20811D5
:10159000C4F20F01086840F020000860FFE74EF237
:1015A0000810C4F20F00006800F02000202801D0CD
:1015B000FFE7F4E745F22051C4F2020144F24B3058
:1015C000C4F64F40086045F22451C4F20201086895
:1015D00040F01100086045F22851C4F20201086889
:1015E00020F01100086045F22C51C4F20201086895
:1015F00020F00F10086045F20041C4F202010868B3
:1016000020F01100086045F22041C4F20201086890
:1016100020F01100086045F21051C4F20201086880
:1016200040F01100086045F21C51C4F20201086844
:1016300040F01100086045F20441C4F2020108685C
:1016400020F01100086045F20841C4F20201086868
:1016500020F01100086045F20C41C4F20201086854
:1016600040F01100086045F21C41C4F20201112053
:10167000086045F21041C4F20201086840F0110010
:1016800008604EF21C41CEF200010868062262F3A7
:10169000575008604EF20011CEF20001086840F089
:1016A000804008607047000081B0009000980138C9
:1016B00046F22801C4F20301086046F20C01C4F2AC
:1016C0000301086840F001000860FFE746F24800A7
:1016D000C4F20300006808B1FFE7F7E746F20C0127
:1016E000C4F20301086820F00100086001B07047EF
:1016F00080B582B0009000998868C96803F06CFDDD
:1017000080B9FFE700998868096903F065FD48B969
:10171000FFE700980088092804DBFFE700208DF828
:10172000070033E000988168C06803F055FD80B978
:10173000FFE70099C868096903F04EFD48B9FFE763
:1017400000984088092804DBFFE701208DF8070096
:101750001CE000988168006903F03EFD80B9FFE756
:101760000098C168006903F037FD48B9FFE70098A9
:101770008088032804DBFFE702208DF8070005E0DE
:10178000FFE7FFE703208DF80700FFE79DF807005C
:1017900002B080BD80B53220FFF786FF45F21840C9
:1017A000C4F202000068C006002840F18A80FFE70A
:1017B00045F21C41C4F20201086840F010000860C4
:1017C00040F21E10C2F200000078D0B9FFE745F2E7
:1017D0001041C4F20201086820F00100086040F2E4
:1017E0001E11C2F200010120087040F21C11C2F269
:1017F00000010020087045F23801C4F202010860BF
:101800005EE040F21E10C2F20000007801280DD107
:10181000FFE740F21E11C2F200010220087040F200
:101820001C11C2F200010020087048E040F21E10B6
:10183000C2F20000007802280DD1FFE740F21E112D
:10184000C2F200010420087040F21C11C2F2000133
:101850000020087032E040F21E10C2F20000007852
:1018600004280DD1FFE740F21E11C2F2000103204F
:10187000087040F21C11C2F20001002008701CE048
:1018800040F21E10C2F200000078032814D1FFE7D6
:1018900045F21041C4F20201086840F001000860FE
:1018A00040F21E11C2F200010020087040F21C112B
:1018B000C2F200010870FFE7FFE7FFE7FFE7FFE77D
:1018C000FFE745F21840C4F202000068C00758B3B1
:1018D000FFE740F21E10C2F200000078D8B9FFE71F
:1018E00040F21D10C2F200000178013101F0070141
:1018F0000170017845F6CC20C0F20000415C40F256
:101900000000C2F200000160006845F23801C4F234
:1019100002010860FFE745F21C41C4F202010868B9
:1019200040F001000860FFE780BD00004EF20411A6
:10193000C4F20F01086840F4805008604EF20811AC
:10194000C4F20F01086840F002000860FFE74EF2A1
:101950000410C4F20F00006800F48050B0F5805FFE
:1019600001D0FFE7F3E7FFE74EF20810C4F20F00E3
:10197000006800F00200022801D0FFE7F4E745F21A
:101980001C51C4F20001086840F00C00086045F2E8
:101990002041C4F20001086840F00C00086045F2E4
:1019A0002C51C4F20001086820F47F400A681043FB
:1019B00040F44C50086045F20C51C4F20001086834
:1019C00040F00800086045F22851C4F200010868A0
:1019D00020F00C0008602021C4F20201086840F0E9
:1019E000100008600C21C4F202010868072262F3AB
:1019F000070008607047000081B08DF802008DF884
:101A00000110FFE70420C4F202000068C00708B11B
:101A1000FFE7F7E79DF8020040000021C4F2020151
:101A200008609DF801000821C4F202010860042149
:101A3000C4F20201086840F003000860FFE70420D8
:101A4000C4F202000068C00708B1FFE7F7E79DF89D
:101A50000200400001300021C4F2020108600421AC
:101A6000C4F20201086840F007000860FFE70420A4
:101A7000C4F2020000684006002801D5FFE7F6E73F
:101A80000420C4F20200006800F002008DF800009B
:101A90009DF9000028B1FFE79DF800008DF80300D4
:101AA00006E00820C4F2020000688DF80300FFE79A
:101AB0009DF8030001B0704782B08DF806008DF8E4
:101AC00005108DF80420FFE70420C4F2020000682E
:101AD000C00708B1FFE7F7E79DF8060040000021C6
:101AE000C4F202010860086820F0010008609DF857
:101AF00005000821C4F2020108600421C4F20201B9
:101B0000086840F003000860FFE70420C4F2020008
:101B10000068C00708B1FFE7F7E79DF80400082157
:101B2000C4F2020108600421C4F20201086840F016
:101B300005000860FFE70420C4F202000068C00747
:101B400008B1FFE7F7E7FFE70420C4F202000068EE
:101B50004006002801D5FFE7F6E70420C4F20200A2
:101B6000006800F002008DF803009DF9030028B121
:101B7000FFE79DF803008DF8070003E000208DF8D3
:101B80000700FFE79DF8070002B070474EF208110A
:101B9000C4F20F01086840F020000860FFE74EF231
:101BA0000810C4F20F00006800F02000202801D0C7
:101BB000FFE7F4E745F22451C4F20201086840F05F
:101BC0000E00086045F22851C4F20201086820F0B6
:101BD0000E00086045F22C51C4F2020108684FF66D
:101BE000F0729043086045F20041C4F202010868B7
:101BF00040F00E00086045F22041C4F2020108687E
:101C000020F00E00086045F21051C4F2020108688D
:101C100020F00E00086045F21C51C4F20201086871
:101C200040F00E000860704780B584B003906820D3
:101C300000903C21FFF7E0FE014600988DF80B1064
:101C40003B21FFF7D9FE014600988DF80A103E218E
:101C5000FFF7D2FE014600988DF809103D21FFF7ED
:101C6000CBFE014600988DF808104021FFF7C4FE16
:101C7000014600988DF807103F21FFF7BDFE8DF853
:101C800006009DF80A109DF80B0040EA0120039918
:101C900008809DF808109DF8090040EA012003998A
:101CA00048809DF806109DF8070040EA012003993E
:101CB000888004B080BD000080B598B01790169160
:101CC000159217998868C968059103F0B1F9024621
:101CD00005980892099103F0ABF9002212924FF097
:101CE00080430B9301F04CFE069007911798006912
:101CF00003F09EF90B9B129A01F042FE02460698F1
:101D00000B46079902F0B6FB02F030FB024608983A
:101D10000B46099902F06AFC01F022FD02F078FB03
:101D200003F086F94CF6B032C1F6632210924AF203
:101D3000DC53C4F24C03119302F080FE02F068FB06
:101D400015990860179881680A91C06880F0004072
:101D500003F06EF902460A980E920F9103F068F9AB
:101D60000B9B129A01F00CFE0C900D9117980069D4
:101D700003F05EF90B9B129A01F002FE02460C98EA
:101D80000B460D9902F076FB02F0F0FA02460E982F
:101D90000B460F9902F02AFC01F0E2FC02F038FB3E
:101DA00003F046F9109A119B02F048FE02F030FB56
:101DB000159948600020C4F2A000149048F65C70A9
:101DC000C3F6826013901698006903F031F9129AF5
:101DD00021F000410023C4F2140303F0D3F9D0BB77
:101DE000FFE716980069159904918968039148F6F0
:101DF0005C71C3F6826103F093FB039903F044F92D
:101E000004998860159880680021C4F2343103F089
:101E1000E3F958B9FFE71598029080680021CCF2E9
:101E2000B43103F031F902998860FFE715988068B2
:101E30000021CCF2343103F0C8F958B9FFE7159806
:101E4000019080680021C4F2B43103F01DF90199BA
:101E50008860FFE7FFE718B080BD000080B584B060
:101E60000390682000904421FFF7C6FD01460098CA
:101E70008DF80B104321FFF7BFFD014600988DF848
:101E80000A104621FFF7B8FD014600988DF80910A9
:101E90004521FFF7B1FD014600988DF80810482153
:101EA000FFF7AAFD014600988DF807104721FFF7BC
:101EB000A3FD8DF806009DF80A109DF80B0040EA7E
:101EC0000120039908809DF808109DF8090040EA58
:101ED0000120039948809DF806109DF8070040EA0C
:101EE00001200399888004B080BD000080B586B0D1
:101EF00068207521FFF780FD8DF817009DF8170009
:101F0000682807D0FFE745F60030C0F2000000F077
:101F1000ABFEACE09DF8172045F6D631C0F20001CB
:101F20000DF10D000090FEF77FFA009800F09CFE86
:101F300045F6E420C0F2000000F096FE45F6483079
:101F4000C0F2000000F090FE682001906B21029129
:101F50008022FFF7B1FD8DF8170045F6D420C0F2BE
:101F6000000000F081FE019802990122FFF7A4FD14
:101F70008DF817009DF8170038B1FFE745F6C2301D
:101F8000C0F2000000F070FE06E045F63630C0F208
:101F9000000000F069FEFFE7682019218022FFF7AA
:101FA0008BFD8DF817009DF8170038B1FFE745F657
:101FB000C230C0F2000000F057FE06E045F6DF3008
:101FC000C0F2000000F050FEFFE768201A21012255
:101FD000FFF772FD8DF817009DF8170038B1FFE785
:101FE00045F6C230C0F2000000F03EFE06E045F6C5
:101FF000AA30C0F2000000F037FEFFE768201C2185
:102000000822FFF759FD8DF817009DF8170038B129
:10201000FFE745F6C230C0F2000000F025FE06E002
:1020200045F68430C0F2000000F01EFEFFE7682095
:102030001B210822FFF740FD8DF817009DF81700BF
:1020400038B1FFE745F6C230C0F2000000F00CFEE8
:1020500006E045F66230C0F2000000F005FEFFE742
:1020600045F62030C0F2000000F0FEFDFFE706B0AC
:1020700080BD000080B598B0179068201C21FFF744
:10208000BBFC8DF85B009DF95B000838014615919B
:10209000182800F2F0801599DFE811F01900ED0022
:1020A000ED00ED00ED00ED00ED00ED004E00ED0067
:1020B000ED00ED00ED00ED00ED00ED008300ED0022
:1020C000ED00ED00ED00ED00ED00ED00B80017981B
:1020D0001090B0F9000003F08FF902F0A9FF002280
:1020E00012920023C4F2D003139302F07FFA02F09D
:1020F0008FF91099886017981190B0F9020003F0D9
:102100007BF902F095FF129A139B02F06FFA02F02E
:102110007FF91199C86017981490B0F9040003F082
:102120006BF902F085FF129A139B02F05FFA02F03E
:102130006FF9149908619EE017980B90B0F90000B0
:1021400003F05AF902F074FF00220D920023C4F24A
:10215000C0030E9302F04AFA02F05AF90B99886014
:1021600017980C90B0F9020003F046F902F060FFF6
:102170000D9A0E9B02F03AFA02F04AF90C99C860E7
:1021800017980F90B0F9040003F036F902F050FFF1
:102190000D9A0E9B02F02AFA02F03AF90F990861A3
:1021A00069E017980690B0F9000003F025F902F0F5
:1021B0003FFF002208920023C4F2B003099302F00B
:1021C00015FA02F025F90699886017980790B0F97A
:1021D000020003F011F902F02BFF089A099B02F0AC
:1021E00005FA02F015F90799C86017980A90B0F936
:1021F000040003F001F902F01BFF089A099B02F0AA
:10220000F5F902F005F90A99086134E01798019090
:10221000B0F9000003F0F0F802F00AFF0022039288
:102220000023C4F2A003049302F0E0F902F0F0F8F6
:102230000199886017980290B0F9020003F0DCF869
:1022400002F0F6FE039A049B02F0D0F902F0E0F8E7
:102250000299C86017980590B0F9040003F0CCF813
:1022600002F0E6FE039A049B02F0C0F902F0D0F8F7
:1022700005990861FFE718B080BD000080B598B0EF
:10228000179068201B21FFF7B7FB8DF85B009DF9C5
:102290005B00083801461591182800F2F680159960
:1022A000DFE811F01900F300F300F300F300F3008E
:1022B000F300F3004F00F300F300F300F300F3002A
:1022C000F300F3008500F300F300F300F300F300E4
:1022D000F300F300BC0017981090B0F9000003F071
:1022E0008BF802F0A5FE0022129246F20003C4F21F
:1022F0006003139302F07AF902F08AF8109988606B
:1023000017981190B0F9020003F076F802F090FEF1
:10231000129A139B02F06AF902F07AF81199C860D8
:1023200017981490B0F9040003F066F802F080FEEC
:10233000129A139B02F05AF902F06AF81499086194
:10234000A3E017980B90B0F9000003F055F802F0E5
:102350006FFE00220D9246F20003C4F250030E936A
:1023600002F044F902F054F80B99886017980C9029
:10237000B0F9020003F040F802F05AFE0D9A0E9BED
:1023800002F034F902F044F80C99C86017980F90E5
:10239000B0F9040003F030F802F04AFE0D9A0E9BEB
:1023A00002F024F902F034F80F9908616DE01798F3
:1023B0000690B0F9000003F01FF802F039FE4FF06C
:1023C0006632089246F26663C4F24003099302F053
:1023D0000DF902F01DF80699886017980790B0F97A
:1023E000020003F009F802F023FE089A099B02F0AC
:1023F000FDF802F00DF80799C86017980A90B0F937
:10240000040002F0F9FF02F013FE089A099B02F0A3
:10241000EDF801F0FDFF0A99086136E01798019088
:10242000B0F9000002F0E8FF02F002FE4FF0663261
:10243000039246F26663C4F23003049302F0D6F8C6
:1024400001F0E6FF0199886017980290B0F9020048
:1024500002F0D2FF02F0ECFD039A049B02F0C6F8F2
:1024600001F0D6FF0299C86017980590B0F90400F2
:1024700002F0C2FF02F0DCFD039A049B02F0B6F802
:1024800001F0C6FF05990861FFE718B080BD0000A4
:1024900080B582B08DF807009DF8070001460091D5
:1024A00007281ED80099DFE801F004070A0D101371
:1024B000161900F0A3F915E000F03AFB12E000F065
:1024C000E5F90FE000F002FA0CE000F0B5FA09E0DF
:1024D00000F0B0FA06E000F0F7F903E000F0A0F930
:1024E00000E0FFE702B080BD80B582B029200090F7
:1024F0009A21FFF781FA014600988DF807109B2179
:10250000FFF77AFA8DF806009DF806109DF807008F
:1025100040EA0120ADF804000320FFF7C5F8BDF83C
:10252000040002B080BD000080B582B02920009078
:102530009421FFF761FA014600988DF80710952164
:10254000FFF75AFA8DF806009DF806109DF807006F
:1025500040EA0120ADF804000320FFF7A5F8BDF81C
:10256000040002B080BD000080B582B02920009038
:102570009821FFF741FA014600988DF8071099213C
:10258000FFF73AFA8DF806009DF806109DF807004F
:1025900040EA0120ADF804000320FFF785F8BDF8FC
:1025A000040002B080BD000080B582B029200090F8
:1025B0009621FFF721FA014600988DF80710972120
:1025C000FFF71AFA8DF806009DF806109DF807002F
:1025D00040EA0120ADF804009DF806109DF80700C0
:1025E00040EA0120ADF804000320FFF75DF8BDF8D4
:1025F000040002B080BD000080B58AB0099009983F
:10260000C08840B9FFE70999002008610999C860AE
:102610000999886050E009980290008802F0ECFE69
:10262000014602980191C08802F0FEFE0146019821
:1026300002F0ECFD02F0FCFC002206924EF20003D8
:10264000C4F26F03079302F0F9F901F0E1FE029979
:10265000886009980490408802F0CEFE01460498F4
:102660000391C08802F0E0FE0146039802F0CEFD1F
:1026700002F0DEFC069A079B02F0E0F901F0C8FECA
:102680000499C86009980890808802F0B5FE014658
:1026900008980591C08802F0C7FE0146059802F02F
:1026A000B5FD02F0C5FC069A079B02F0C7F901F0E0
:1026B000AFFE08990861FFE70AB080BD80B588B019
:1026C00029209221FFF798F98DF81F009DF81F200F
:1026D00045F6D631C0F200010DF10B000190FDF777
:1026E000A3FE019800F0C0FA9DF81F004D2807D006
:1026F000FFE745F6F540C0F2000000F0B5FA7AE0D9
:1027000045F6D840C0F2000000F0AEFA2920812141
:10271000FF22FFF7D1F98DF81F009DF81F0038B197
:10272000FFE745F69550C0F2000000F09DFA06E084
:1027300045F66150C0F2000000F096FAFFE7032072
:10274000FEF7B2FF29208F210122FFF7B5F98DF89E
:102750001F009DF81F0038B1FFE745F69550C0F205
:10276000000000F081FA06E045F68150C0F200005A
:1027700000F07AFAFFE7292080210122FFF79CF977
:102780008DF81F009DF81F0038B1FFE745F6955002
:10279000C0F2000000F068FA06E045F64D50C0F2C5
:1027A000000000F061FAFFE703200090FEF77CFFD5
:1027B000009A29208021FFF77FF98DF81F009DF8EE
:1027C0001F0038B1FFE745F69550C0F2000000F059
:1027D0004BFA06E045F63A50C0F2000000F044FA29
:1027E000FFE70320FEF760FF45F61650C0F2000039
:1027F00000F03AFAFFE708B080BD000080B540F273
:102800000000C2F20000026845F23801C4F2020181
:102810000868504008604FF4FA70FEF745FF80BD2D
:1028200080B582B045F23801C4F20201022008608E
:1028300040F21410C2F20000019045F60A41C0F2C5
:102840000001FDF707FE40F27C00C2F200000068C4
:1028500002F0EEFB02460B4640F2B000C2F200006E
:1028600045F69341C0F20001FDF7DEFD019A40F20A
:10287000E200C2F2000045F6CF41C0F20001FDF7D0
:10288000D3FD1420FEF710FF02B080BD80B582B0EA
:1028900029209221FFF7B0F88DF807009DF8072056
:1028A00040F21F10C2F20000009045F6F331C0F272
:1028B0000001FDF7B9FD009800F0D6F94FF47A70E9
:1028C000FEF7F2FE02B080BD70470000B0B59AB0CE
:1028D00040F26800C2F200000490FFF7A5F940F250
:1028E0008800C2F200000B90FFF7B8FA0498FFF7D7
:1028F000C1FB0B98FFF7C2FC04980B9940F27C02D5
:10290000C2F200021292FFF7D7F904998868CA68E8
:1029100005920969069102F08BFB02460598089220
:10292000099102F085FB024606980A92079102F08F
:102930007FFBDDF81CC0089A099B86460A980C4666
:102940006946CC60C1F808E0C1F804C0086040F2F4
:102950001F10C2F20000199045F65641C0F2000166
:10296000FDF762FD199800F07FF90B998868CA6835
:102970000C9209690D9102F05BFB02460C980E92D5
:102980000F9102F055FB02460D981192109102F042
:102990004FFB0E9A0F9BDDF840E0044619980D4658
:1029A0001199EC46CCF80C50CCF80840CCF804E077
:1029B000CCF8001045F67441C0F20001FDF734FD7B
:1029C000199800F051F900F02FF9129908684A6837
:1029D00013928968149102F02BFB0246139815920A
:1029E000169102F025FB024614981892179102F0F6
:1029F0001FFB159A169BDDF85CE0044619980D46FE
:102A00001899EC46CCF80C50CCF80840CCF804E00F
:102A1000CCF8001045F62941C0F20001FDF704FD95
:102A2000199800F021F900F0FFF89620FEF73CFE1F
:102A30001AB0B0BD7047000010B58EB0FFF7B4FDFE
:102A400040F29C01C2F200010C910880FFF74CFD9E
:102A50000C998880FFF788FD0C994880FFF764FD8A
:102A600001460C98C180FFF7C7FD0C98FEF740FEA9
:102A700001460D91032820D80D99DFE801F00209E5
:102A8000101745F23801C4F202010220086014E078
:102A900045F23801C4F20201082008600DE045F259
:102AA0003801C4F202010420086006E045F2380152
:102AB000C4F2020100200860FFE740F29C01C2F26C
:102AC00000018868CA6805920969069102F0B0FAA7
:102AD000024605980892099102F0AAFA0246069861
:102AE0000A92079102F0A4FADDF81CC0089A099B2B
:102AF00086460A980C466946CC60C1F808E0C1F8E1
:102B000004C0086040F21F10C2F200000B9045F6AE
:102B10000E41C0F20001FDF787FC0B9800F0A4F80D
:102B200000F082F83220FEF7BFFD0EB010BD0000AD
:102B300080B588B07B20079041F6B860C4F20900E8
:102B4000059048F21F50C5F2EB100490079B0498C3
:102B5000059A69464A60086040F21F10C2F2000000
:102B6000039045F69F41C0F2000145F60642C0F2CF
:102B70000002FDF759FC039800F076F800F054F8D5
:102B80004FF47A70FEF790FD08B080BD4EF204114C
:102B9000C4F20F01086840F0010008604EF208110D
:102BA000C4F20F01086840F0010008604CF23001E7
:102BB000C4F20001002008604CF22400C4F20000BE
:102BC000112202604CF22803C4F20003172018609F
:102BD0004CF22C03C4F2000370201860086840F225
:102BE00001331843086044F22041C4F20001086830
:102BF00040F00300086044F21C51C4F20001086870
:102C000040F00300086044F22C51C4F2000108684F
:102C100062F30700086044F22851C4F2000108681A
:102C200020F003000860704780B50D2000F004F824
:102C30000A2000F001F880BD81B08DF80300FFE7A5
:102C40004CF21800C4F2000000688006002801D58C
:102C5000FFE7F5E79DF903004CF20001C4F2000123
:102C6000086001B07047000080B582B00190FFE7B6
:102C70000198007848B1FFE7019890F90000FFF74C
:102C8000DBFF019801300190F2E702B080BD000047
:102C90004EF25C61C4F20F01086840F00100086068
:102CA000FFE74EF25C60C4F20F00006800F0010024
:102CB000012801D0FFE7F4E746F20C01C4F203015A
:102CC000086820F00100086046F20001C4F2030128
:102CD000086840F00400086046F20401C4F20301F1
:102CE000086840F00200086046F23801C4F20301AF
:102CF00047F20010C0F202000860704780B582B051
:102D000000200190FFF742FFFEF740FFFEF73EFC78
:102D1000FFF7BEFFFEF70AFEFFF7D0FCFFF7E6F86D
:102D2000FFF782FFFFE740F21E10C2F200000078BA
:102D3000C8B9FFE740F21C10C2F200000078C007DB
:102D400068B9FFE745F62C60C0F20000FFF78CFF82
:102D500040F21C11C2F2000101200870FFE70020C0
:102D6000FFF796FBFFE740F21E10C2F2000000786A
:102D7000012819D1FFE740F21C10C2F200000078D0
:102D8000C00768B9FFE745F60D60C0F20000FFF725
:102D90006BFF40F21C11C2F2000101200870FFE736
:102DA0000120FFF775FBFFE740F21E10C2F20000A2
:102DB0000078022819D1FFE740F21C10C2F200008F
:102DC0000078C00768B9FFE745F6A950C0F20000D7
:102DD000FFF74AFF40F21C11C2F200010120087007
:102DE000FFE70220FFF754FBFFE740F21E10C2F29C
:102DF00000000078032819D1FFE740F21C10C2F24E
:102E000000000078C00768B9FFE745F6C750C0F278
:102E10000000FFF729FF40F21C11C2F2000101205F
:102E20000870FFE70320FFF733FBFFE740F21E10B7
:102E3000C2F200000078042819D1FFE740F21C100C
:102E4000C2F200000078C00768B9FFE745F6E65017
:102E5000C0F20000FFF708FF40F21C11C2F20001AF
:102E600001200870FFE70420FFF712FBFFE740F2A4
:102E70001E10C2F200000078052801D1FFE7FFE72D
:102E800040F21E10C2F200000078062801D1FFE7D0
:102E9000FFE740F21E10C2F200000078072801D1BF
:102EA000FFE7FFE73FE75FEA400C08BF91F0000F44
:102EB0004FEA8C234FEAC12243EA51514FEA1C509A
:102EC00018BF00F5F0404FEA300018BF41F0004154
:102ED0005FEA6C5C00F02980BCF1FF3F08BF40F066
:102EE00080407047130C06BF12044FF0100C4FF0D7
:102EF000000C130E04BF12020CF1080C130F04BFD8
:102F000012010CF1040C930F04BF92000CF1020C9F
:102F1000D30F04BF52000CF1010C11464FF0000218
:102F2000A0F11F00A0EB0C00704711F0004F08BF8C
:102F3000704731F000413FF4D5AF0B0C06BF0904D8
:102F40004FF0100C4FF0000C0B0E04BF09020CF1F7
:102F5000080C0B0F04BF09010CF1040C8B0F04BF0C
:102F600089000CF1020CCB0F04BF49000CF1010CDD
:102F7000CCF1200322FA03F341EA030102FA0CF236
:102F8000A0EB0C0000F101007047000023F07F4728
:102F900020F07F4C80EA030000F00040ACEB070318
:102FA00003F57C5303F1FF032DE9804909B44FEA8F
:102FB000144324EA03484FEA154B25EA0B4E0FF25F
:102FC000042606EB13273E7803FB0667C7F50007C8
:102FD00007FB06F64FEAD64606F102064FEA5437DB
:102FE00007FB066CCCF1005C4FEA1C472CEA074C4F
:102FF0000CFB06F507FB06F404EB15464FEA9616A4
:1030000049085FEA320234BF00204FF000404FEA27
:10301000D13706FB07FC4FEA1C4C0CFB0BF7D21B0D
:1030200003FB0CF761EB07010CFB0EF7B0EB07405D
:1030300072EB17420CFB08F734BFA2EB0742B2EB6E
:10304000074261EB17414FEA0C444FEA910706FB38
:1030500007FC4FEA1C4C0CFB0BF7B0EBC74072EBC4
:10306000573203FB0CF734BFA2EBC742B2EBC742A7
:1030700061EB57310CFB0EF7B0EBC70072EB5772E8
:103080000CFB08F734BFA2EBC702B2EBC70261EB3F
:1030900057714FEA816141EA92114FEA826242EA36
:1030A00090124FEA806004EBCC04039F4FEAD137C3
:1030B00006FB07FC4FEA1C4C0CFB0BF7D21B03FB77
:1030C0000CF761EB07010CFB0EF7B0EB074072EB5E
:1030D00017420CFB08F734BFA2EB0742B2EB0742E2
:1030E00061EB17414FEA8C5504EB9C244FEA9107A2
:1030F00006FB07FC4FEA1C4C0CFB0BF7B0EBC74080
:1031000072EB573203FB0CF734BFA2EBC742B2EBB2
:10311000C74261EB57310CFB0EF7B0EBC70072EB07
:1031200057720CFB08F734BFA2EBC702B2EBC70221
:1031300061EB57714FEA816141EA92114FEA826275
:1031400042EA90124FEA806015EB4C2544F10004EE
:103150004FEAD13706FB07FC4FEA1C4C0CFB0BF780
:10316000D21B03FB0CF761EB07010CFB0EF7B0EB76
:10317000074072EB17420CFB08F734BFA2EB074283
:10318000B2EB074261EB17414FEA813141EA9241CC
:103190004FEA823242EA90424FEA80304FEA0C76A0
:1031A00015EB1C1544F1000448EA03434EEA0B48B2
:1031B0004FF0000EB2EB080C71EB030724BF624620
:1031C00039464EEB0E0E4FF0000B001852414941AC
:1031D0004BEB0B0BB2EB080C71EB03077BF1000B15
:1031E00024BF624639464EEB0E0E4FF0000B00181E
:1031F000524149414BEB0B0BB2EB080C71EB03074F
:103200007BF1000B24BF624639464EEB0E0E51EAAD
:10321000020718BF46F0010616EB0E7655F10002C4
:1032200054F1000103D5BDE88901BDE80088BDE87F
:103230008901BDE80048B619524141EB0101A3F1F3
:103240000103704780807F7E7D7C7B7A79787776FA
:1032500076757473727171706F6E6E6D6C6C6B6A73
:103260006A69686867666665646463636261616011
:10327000605F5F5E5E5D5D5C5C5B5B5A5A5959588E
:1032800058575756565555555454535352525251F8
:10329000515050504F4F4F4E4E4D4D4D4C4C4C4B4E
:1032A0004B4B4A4A4A494949484848474747474695
:1032B00046464545454444444443434343424242D1
:1032C000424141419C46002B30D477002BD04FEA3D
:1032D00037071CB503B44FF010004FF01001BAF1DE
:1032E000000F06D0BCF1000FDCBF40F0080040F03A
:1032F00008014FF000000FBCBDE810400BF1010BBE
:10330000BBF1010F08BF5FEA170722BF12F10102EC
:1033100011F101014FF0004143F1000300F00040C2
:1033200043EA00007047F9D35708D0E746EA06465B
:103330004FEA164613F1400F1FDD13F1200FDFBFD8
:1033400016430A46002120335B42BED0C3F120075A
:1033500046EA06464FEA164602FA07F746EA070625
:1033600022FA03F2C3F1200701FA07F742EA070243
:1033700021FA03F14FF00003A7E746EA020646EA06
:1033800006464FEA164646EA0106BCBF46EA06462E
:10339000360C4FF000034FF000024FF0000194E7AD
:1033A0002DE9804C70B49A46934691E8380007C8DE
:1033B00031EA400C48BF34EA430C03D5FFF7E6FD81
:1033C000FFF780FFF0BCBDE8008C2DE9804C70B4A5
:1033D0009A46934691E8380007C810F0804F08BF1E
:1033E00013F0804F03D100F005F8FFF76BFFF0BC3E
:1033F000BDE8008C20F07F4723F07F4C80EA03007B
:1034000000F0004007EB0C03A3F57C53A3F1FE038F
:1034100092F0000F00F0B38095F0000F00F077807D
:103420002DE901494FEA114021EA00484FEA1446CC
:1034300024EA064700FB06FC08FB06F607FB08F833
:1034400018EB06484CEB164C00FB07F718EB074847
:103450004CEB17404FEA124B22EA0B4E4FEA15464F
:1034600025EA06470BFB06FC0EFB06F607FB0EFEE5
:103470001EEB064E4CEB164C0BFB07F71EEB074EF4
:103480004CEB174B18EB0B0840F1000018EB0E0B40
:1034900058EB000840F100008F1A4FF000014FF088
:1034A00000063CBFC943661B14BFB5EB040C0021EA
:1034B0003CBFC943F61B4FEA174427EA04454FEACD
:1034C0001C472CEA074C04FB076205FB07F70CFBC3
:1034D00005F616EB074642EB174204FB0CFC16EB15
:1034E0000C4642EB1C421BEB060658EB0202414124
:1034F0004EEA8E0E46EA9E0601D5BDE80189B61950
:10350000524141EB0101A3F10103BDE801894FEAFA
:10351000144524EA05464FEA114721EA074C05FB0A
:1035200007F406FB07F70CFB06F111EB074144EB30
:10353000174405FB0CFC11EB0C4144EB1C444FEA17
:10354000124722EA074C05FB07F206FB07F70CFBC4
:1035500006F616EB074642EB174205FB0CFC16EB92
:103560000C4642EB1C456A1854F1000148BF7047F5
:10357000B619524141EB0101A3F10103704795F0E7
:10358000000F37D04FEA114221EA02464FEA1447B2
:1035900024EA074C02FB07F106FB07F70CFB06F4D5
:1035A00014EB074441EB174102FB0CFC14EB0C44F9
:1035B00041EB1C414FEA154725EA074C02FB07F592
:1035C00006FB07F70CFB06F616EB074645EB17451F
:1035D00002FB0CFC16EB0C4645EB1C42121951F198
:1035E000000148BF7047B619524141EB0101A3F1F8
:1035F000010370474FEA144524EA05464FEA114794
:1036000021EA074C05FB07F106FB07F70CFB06F266
:1036100012EB074241EB174105FB0CFC12EB0C428D
:1036200051EB1C414FF0000648BF7047921841EB28
:103630000101A3F101037047490050EAC12018BFFE
:1036400004204A0D18BF40F0010040F2FF72B2EBB7
:10365000515F08BF40F00200012808BF05207047F5
:103660002DE9F0414F1E00EBC7010446D1E90001EE
:1036700015461E4637F006020DD02A46334601F0A5
:10368000DDF97F1E04EBC703D3E9002300F0F2FE4F
:1036900037F00602F1D1022F25D0042F13D0062FC8
:1036A00018BFBDE8F0812A46334601F0C7F9D4E9D6
:1036B0000A2300F0DFFE2A46334601F0BFF9D4E9C1
:1036C000082300F0D7FE2A46334601F0B7F9D4E9C3
:1036D000062300F0CFFE2A46334601F0AFF9D4E9C5
:1036E000042300F0C7FE2A46334601F0A7F9D4E9C7
:1036F000022300F0BFFE2A46334601F09FF9D4E9C9
:103700000023BDE8F04100F0B5BE000000221346E2
:103710001046014900F06ABF0000F03F012202F0AC
:1037200076B800F0A7BE002213461046114600F0FE
:103730005DBF40F2013200204FF0E04102F067B877
:10374000024A0020110702F062B8000001FDFFFFED
:1037500030380A2801D2012070470020704700004D
:103760002DE9F84F04460D4621F0004000917349C1
:10377000814211DC7249884201DC06D12CB120461D
:103780002946BDE8F84FFFF7C9BF6E48002DCCBFF2
:103790006D496E49BDE8F88F6D49814211DD6D4973
:1037A0008142D8BF4FF0FF366DDD20462946FFF736
:1037B00043FF042808BFFFF7C3FF20462946BDE8A2
:1037C000F88F6549654F25F00045814233DD644936
:1037D000814219DD002632464FF0804320462946BB
:1037E00000F048FE80468A4601222046294602F023
:1037F0000EF800223B4601F02DFB4246534600F0F6
:10380000F5FE04460D463EE001260022BA463B4640
:103810002046294600F02EFE80460F4600225346E1
:103820002046294601F016FB42463B4600F0DEFEEC
:1038300004460D4627E04B4981421BDDDFF828A1F5
:103840000226002253462046294601F0F7F80022BE
:103850003B4600F00FFE80460F46002253462046AE
:10386000294601F0F7FA42463B4600F0BFFE044607
:103870000D4608E0032622462B4600203B4900F077
:10388000B5FE04460D4622462B461046194601F069
:10389000D5F88B46824602460B4601F0CFF8074624
:1038A0000246334888460B4606217844FFF7D8FE87
:1038B00052465B4601F0C2F882462E488B463A4695
:1038C000434605217844FFF7CBFE3A46434601F0D4
:1038D000B5F802460B46002E504659460CDA00F069
:1038E000C9FD22462B4601F0A9F801B022462B461D
:1038F000BDE8F04F01F0D6B900F0BCFD22462B46E2
:1039000001F09CF81C4A7A4402EBC603D3E9002379
:1039100001F0A0FA22462B4601F09CFA174A7A449D
:1039200002EBC603D3E9002301F0BCF9009A002A98
:10393000B8BF81F00041BDE8F88F000000001044DE
:103940000000F07F182D4454FB21F93FFB21F9BF03
:103950000000DC3F0000203E0000F33F0000F03F8D
:103960000000E63F008003400000F83F0000F0BF89
:103970005A20000018200000B61F00007E1F000023
:103980002DE9F04D1D460C4694B0174621F000413C
:1039900023F00043002814BF4FF0010C4FF0000C3F
:1039A0000CEB440CFB4A0CEB02064FEA620C66453A
:1039B0002BD33E0018BF012606EB45061644F64AF7
:1039C000964222D3F54A53EA070C02D0944205D11D
:1039D00048B914B000201146BDE8F08D002808BF9A
:1039E0004FF0000C01D04FF0010C0CEB440212F52B
:1039F000001F0AD8002F14BF4FF0010C4FF0000C2D
:103A00000CEB450212F5001F07D914B03A462B46BD
:103A10002146BDE8F04DFFF784BE0022DFF880A309
:103A2000002CB8BF534526DADFF878C36345A8BF3A
:103A3000022220DADFF864C39C451CDCDFF868C38F
:103A40000CEB235CBCF1140F08DDCCF1340627FA33
:103A500006FC0CFA06F6BE420DD108E05FB9CCF1C7
:103A6000140623FA06FC0CFA06F69E4203D10CF06B
:103A70000102C2F1020251EA000C19D1002D17DA3D
:103A8000002C18BF022A01D0012A07D00220FCF71F
:103A90000DFD14B0BDE8F04DFFF738BE0220FCF775
:103AA00005FDFFF733FE14B081F00041BDE8F08D55
:103AB000B7F1000C6CD1534525D104F1804212F5C9
:103AC000801201BF00280020B44914B008BFBDE82F
:103AD000F08DB248884207DC002DA1BF6046294620
:103AE00014B0BDE8F08D07E0002DBFBF604685F043
:103AF000004114B0BDE8F08DAC497944D1E9000132
:103B000014B0BDE8F08DDFF894C2634525D1002DD7
:103B10001FDA19B1514512D1D8B909E0002840F097
:103B2000F6829F4A214614B062F31E01BDE8F08D73
:103B30000020214614B060F31E01BDE8F08D08DAC4
:103B400014B02346BDE8F04D02460020614600F067
:103B50004DBD14B02146BDE8F08D514518DAB5F1E0
:103B6000804F0DD0A5F1005CBCF1FF5C10D1B4F129
:103B7000000C0DDB14B06146BDE8F04D00F0F6BB63
:103B8000234614B00246BDE8F04D194600F056BF7A
:103B9000060024F0004C3BD1D9B1514533D1002C63
:103BA00006DD002DA1BF0020514614B0BDE8F08D08
:103BB000002C01DD002D1BDB002C13DA002D11DBA6
:103BC000012A4FF0000014BF7549794914B0BDE8CF
:103BD000F08D022A18BF002C0AD0012A08D1002C2F
:103BE00006DA0AE0002CB8BF002D11DA012A04D051
:103BF000002014B00146BDE8F08D14B000204FF055
:103C00000041BDE8F08DA1F14050B0F17F601AD0C5
:103C1000012000EBE47050EA020421D05F4C521EF8
:103C20004FF0000B104304BF4FF0000B614C624893
:103C300083427DDD614A6248934229DD884217DB79
:103C4000002D2FDB41E0002C00DA4AB1022A0CBF24
:103C500001204FF0FF3014B0BDE8F04D00F05EBE23
:103C60000120FCF723FC14B0BDE8F04DFFF75BBD6D
:103C70004A4A8A420CDC002D14DC0220FCF716FCB8
:103C8000FFF75EFD61F31E0414B02146BDE8F08D20
:103C9000814202DA002D18DA04E0404B994220DD1F
:103CA000002D12DD0220FCF701FCFFF742FD054666
:103CB0000E46002253465846214600F0BFFE14B07F
:103CC00066F31E012846BDE8F08D0220FCF7EEFBEE
:103CD000FFF736FD0A46214614B062F31E01BDE827
:103CE000F08D00223046614601F0B4F80646884661
:103CF0006FF0010201F08BFD4FF05532314B00F0B7
:103D0000D1FF3246434600F099FE00222E4B00F0D0
:103D1000C9FF8A463246434602901046194600F0D3
:103D20008DFE5346029A00F089FE8246324600E03C
:103D300054E0059143464FF0C040244900F07EFE18
:103D4000CDE90C01224A214B5046059900F076FE40
:103D5000824601911F4A204B3046414600F06EFEDC
:103D60005246019B01F076F882460B4602460991C5
:103D7000DDE90C0100F07EFBDDE90C23002688461E
:103D8000304601F067F85246099B00F08BFF02466F
:103D900000F07EB9FFFF1F00FFFF0F000000F03FA3
:103DA0000000F07F0000404301FCFFFF0A1F0000FD
:103DB0000000F0FF0000F0BF0000E0410000F04311
:103DC000FFFFEF3F5555D53F0000E03F4715F73F58
:103DD000FE822B6544DF5DF80BAE543E0020B1F54A
:103DE000801F07DA35223046614601F010FD064695
:103DF0006FF0340000EB2150A0F2FF300190C1F3CE
:103E0000130040F07F6141F040510291FE49884229
:103E1000D8BF002004DDFD498142C8BF012001DD7B
:103E20000F9008E000200F900198401C019002982C
:103E3000A0F5801002900299F548784405910F99F9
:103E400000EBC1001290D0E900233046059901F043
:103E500001F8CDE90C011298D0E90023304605990C
:103E600000F008FB02460B460020EA4900F0BEFBCA
:103E70000B46CDE908010246DDE90C0100F0DEFD4C
:103E80000A90E5488A464FF0000878440299006895
:103E900010904FF0005040EA61010F9801EB804014
:103EA00000F5002112981191D0E90023109800F03C
:103EB000D1FF3246059B00F0F5FE4246534600F026
:103EC000BDFDDDE91023064603914046514600F052
:103ED000B5FDDDE90C2300F0E5FE3246039B00F062
:103EE000B9FFDDE9082300F0A9FD03910A9A1290B9
:103EF00053461046194600F0A1FD06460246C74843
:103F00000B46029106217844FFF7AAFB029B32463A
:103F1000059108901046194600F090FD059B089AFF
:103F200000F08CFD064609915346404619460A9A10
:103F300000F0A0FA039B129A00F080FD3246099B24
:103F400000F098FACDE9080142465346104619465A
:103F500000F074FD02460B46029104900020B04927
:103F600000F088FADDE9082300F084FA0E464246A4
:103F7000AB4B404600F06EFF029B049A00F06AFFD4
:103F8000DDE9082300F08EFE42460491029033469C
:103F90001046514600F052FDCDE90C0153460A9AF5
:103FA0000499029800F04AFD824600913346424649
:103FB0000399129800F042FD5246009B00F05AFA15
:103FC00082460B4602460991DDE90C0100F052FAE7
:103FD000DDE90C2300268846304600F03BFF5246C0
:103FE000099B00F05FFECDE90801434632464FF0E1
:103FF00060408C4900F022FD82460491DDE9080111
:10400000894A884B00F01AFD0291009043463246DF
:104010008648874900F012FD029B009A00F02AFAB8
:10402000844B7B440F9A03EBC203D3E9002300F0D7
:1040300021FA00900291019800F070FC0E9003911B
:104040005046029B009A049900F014FA7A4A7A4486
:104050000F9B02EBC3030993D3E9002300F00AFA94
:10406000039B0E9A00F006FA88463046039B0E9A90
:1040700000F0F0FE099BD3E9002300F0EBFE52466E
:10408000049B00F0E7FE029B009A00F00BFE024644
:1040900000200B4602903846294600F0CFFC8246AD
:1040A00003912B4638461946029A00F0D3FE324659
:1040B000434600F0C3FC5246039B00F0DBF9074681
:1040C0008A46324643462946029800F0B7FC054628
:1040D0000E463A46534600F0CDF9584A884691427A
:1040E00021DBA8EB020353EA000210D12A46334633
:1040F00000F0B0FECDE90310514A524B384651460C
:1041000000F0B8F9DDE9033200F096FD21D202207B
:10411000FCF7CCF9FFF70DFB0A46214614B062F319
:104120001E01BDE8F08D484B28F000429A4210D3A2
:10413000464A08EB020353EA00027FF4C6AD2A4662
:10414000334600F087FE3A46534600F075FD7FF691
:10415000BCAD0022019228F000403D493D4A01EBF0
:104160002051824223DA481C4FF4801121FA00F0DA
:104170004044394AC0F30A517A44384BA1F2FF3126
:10418000CB4020EA0303C0F3130040F48010C1F1D8
:104190001401C84012680190B8F1000FBCBF404242
:1041A00001902846314600F055FE05460E462A4647
:1041B00033463846514600F05DF94FF0000842465C
:1041C000274B4046039100F039FCCDE90C01254A0C
:1041D000254B4046039900F031FC029100902A469D
:1041E00033464046039900F035FE3A46534600F008
:1041F00059FD1E4A1E4B00F021FC029B009A00F064
:1042000039F90746884635E08E9803007AB60B00E8
:10421000FA1A00000000F03F7A1B00005E1A00004E
:104220000000084009C7EE3FFD033ADCF5015B14CE
:10423000E02F3EBE32190000F6180000000090404A
:10424000FE822B654715973C00CC904000346F3FB1
:1042500001FCFFFF0000E03F8C180000FFFF0F0093
:10426000432EE63F396CA80C615C20BEEF39FAFEA4
:10427000422EE63F02460B46DDE90C0100F0FAF85B
:10428000DDE90C2305460E4600F0E4FD3A464346C0
:1042900000F008FD07462A463346059110461946A8
:1042A00000F0CCFB824602462E4888460B4605218C
:1042B0007844FFF7D5F95246434600F0BFFB2A4643
:1042C000334600F0EFFC80468A463A46284631469F
:1042D000059B00F0B3FB3A46059B00F0CBF8059137
:1042E000009000224FF080434046514600F0B2FD5E
:1042F00007460391424653462846314600F09EFB4E
:104300003A46039B00F072F9059B009A00F0A2FD6B
:104310002A46334600F09EFD0022134B00F0C2FCFB
:10432000054601980E4601EB00510815002810DCE7
:1043300028463146019A01F06AFAFFF77DF9042810
:1043400008BFFFF7FDF928463146019A01F05FFAF0
:1043500005460B4614B02A4658462146BDE8F04DA6
:1043600000F06CBBE41600000000F03F2DE9F041C6
:1043700006460F4600F0A2FC041E0D4618BF0120A1
:10438000284320F00040C0F17F6000F1E040C00F02
:104390000ED0301C18BF0120384320F00040C0F17F
:1043A0007F6000F1E040C00F04BF0120FCF77EF801
:1043B00020462946BDE8F08110B500290AD00878CA
:1043C000002807D005487844FDF79AF8002801D066
:1043D000002010BD0248784410BD0000A61A00005D
:1043E0009E1A000010B500290AD00878002807D0CE
:1043F00005487844FDF784F8002801D0002010BD5E
:104400000248784410BD0000961A00008E1A000081
:1044100021F0004201F00043A2F16052B2F5801F8A
:1044200028BFD2F17F6C0BD95FEA001C43EAC202BD
:1044300042EB507018BF704728BF20F00100704752
:10444000B2F5801FBCBF184670474FEA410C1CF5FF
:10445000001F02D2084601F02AB970B500F098FB9F
:1044600000000089FFF7F6BF4FF00040A0F5800084
:104470007047000010B591EA030F48BF83F0004376
:1044800000F1F084841A71EB030C05D2121943EB8E
:104490000C03001B61EB0C014FEA1154A4EB135CFD
:1044A000DFF81CE11EEA430F18BF9EEA445F00F0EC
:1044B000748021EA045123EA0E0343F48013DCF1F3
:1044C000200E32D322FA0CFE10EB0E0023FA0CFE63
:1044D00041EB0E01CCF1200E03FA0EFE10EB0E00A4
:1044E000CCF1200E51F10001B1F5801F32D201EB69
:1044F000045112FA0EF2BDE8104058BF7047401C3C
:1045000038BF5FEA420218BF7047002814BF20F08E
:10451000010041F100014FEA410313F5001F38BFCC
:104520007047A1F1C04100F081BB012A43EB0302B7
:10453000ACF1200CDCF11F0E32BF4FF0000E23FA5D
:104540000CF310EB030041EB0451B4EB115FD0D03E
:10455000A1EB045101F58011490801EB04515FEA18
:1045600030000ED350F1000038BF12FA0EFE08D111
:10457000BDE81040C9E7401C38BF5FEA4202CAD11B
:10458000C3E7BDE810404FEA410313F5001F38BFF1
:104590007047A1F1C04100F049BB9EEA445F08D0DA
:1045A00011EA5E0FBDE8104004BF01F00041002099
:1045B0007047BDE8104070B500F0EAFA64FBBE3EFB
:1045C0000000E0FF02494FF0000001F0EEB800BF2C
:1045D0000000F87F491058BFC1F140415B1058BF3F
:1045E000C3F140438B42EFF3008070472DE9C04197
:1045F00030B4DFF8A8C23CEA111418BF3CEA131427
:1046000000F0F0801CEA111481EA030544EAD57435
:1046100018BF1CEA131500F0CB80A4EB050404F1CD
:104620007F7404F500344FF0004545EAC12145EAA6
:10463000C32341EA505143EA52534FEAC0204FEAA4
:10464000C222994208BF904200F0A0804FEA136551
:104650000FF24816765D4FEA134506FB05F7C7F1E2
:10466000807706FB07F74FEAD737A7FB0368764248
:10467000A7FB06CEC8F5803838BFA8F1010807FBB4
:1046800008E6A6FB028C4FF0000EE6FB03CED8F145
:1046900000086FEA0C0C5CF1000C6FEA0E0E4EF194
:1046A000004EA6FB0C584FF00007E6FB0E87A1FB5F
:1046B00008C6A0FB07CE16EB0E064FF0000545F12D
:1046C0000005E1FB076515F1E04E7EBFA4F58034DF
:1046D0005FEA46066D4116F1800745F100054FEA95
:1046E000172747EA05674FEA15254FEA0666A6F140
:1046F000DE46B6F1805F20D9384605EBC47124F060
:10470000010C01EB0C11BCF1FE6F02D8F0BCBDE84E
:10471000008124425CBF01F5801E9EEAC47F02D462
:10472000F0BCBDE80081244200F13980A1F1C04114
:10473000F0BCBDE8004100F079BA4FEAD02040EA71
:1047400041504FEAD1214FEAD22242EA43524FEA86
:10475000D323A7FB028607FB036605FB02661EEA5E
:104760000E0F58BFA6EB0056B6EB00564FEA520E9E
:104770004EEAC37E18EB0E0E56EB530EBCD518EB6B
:1047800002085E417F1C55F10005B5E74FF4801526
:104790004FF000074FF000064FF00008ACE701F1C2
:1047A000C04101F000414FF00000F0BCBDE80081C5
:1047B0000CEA131511EA0C1F00D00CE013EA0C1FD1
:1047C00000F025804FF0000081EA030101F0004174
:1047D000F0BCBDE80081F0BCBDE8004181EA030106
:1047E00000F024BAF0BCBDE8004170B500F0D0F98B
:1047F000097EFC3E00F007B84FF0000081EA03019B
:1048000001F00041704781EA030100F00FBAF0BCEB
:10481000BDE8004122494FF000007047FFFDFBF961
:10482000F7F5F4F2F0EEEDEBE9E8E6E4E3E1E0DEE3
:10483000DDDBDAD8D7D5D4D3D1D0CFCDCCCBCAC855
:10484000C7C6C5C4C2C1C0BFBEBDBCBBBAB9B8B77C
:10485000B6B5B4B3B2B1B0AFAEADACABAAA9A8A86F
:10486000A7A6A5A4A3A3A2A1A09F9F9E9D9C9C9B3D
:104870009A999998979796959594939392919190E8
:104880008F8F8E8E8D8C8C8B8B8A89898888878779
:104890008685858484838382828181800000FF07EE
:1048A0000000F87F51EA030C17D41CF5801F58BF95
:1048B000BCF5801F00F10680994218BF704708BF01
:1048C0009042704707D711F5801F58BF13F5801F1E
:1048D00019D499427047894270471CF5801F08D54A
:1048E000BCF5801FF7D58B4218BF704708BF8242C6
:1048F00070474FF4001C1CEB410F38BF1CEB430FFB
:1049000001D28B42704770B500F042F99224490001
:104910004FF000514FF08053FFF75CBE10F00042A3
:1049200048BF4042B0FA80F310FA03F10AD0C3F155
:104930001D0303F5806302EB03524FEA415002EB83
:10494000D12170474FF000007047000051EA030C7E
:1049500017D41CF5801F58BFBCF5801F00F10680DE
:10496000994218BF704708BF9042704707D711F5AA
:10497000801F58BF13F5801F19D499427047894290
:1049800070471CF5801F08D5BCF5801FF7D58B42FA
:1049900018BF704708BF824270474FF4001C1CEBE1
:1049A000410F38BF1CEB430F01D28B42704770B5EB
:1049B00000F0EEF8922449004FF080514FF0005380
:1049C000FFF708BE51EA030C17D41CF5801F58BF2F
:1049D000BCF5801F00F10680994218BF704708BFE0
:1049E0009042704707D711F5801F58BF13F5801FFD
:1049F00019D499427047894270471CF5801F08D529
:104A0000BCF5801FF7D58B4218BF704708BF8242A4
:104A100070474FF4001C1CEB410F38BF1CEB430FD9
:104A200001D28B42704770B500F0B2F89224490071
:104A30004FF000514FF08053FFF7CCBD70B5DFF859
:104A400048C11CEA111E1EBF1CEA13159EEA0C0F7A
:104A500095EA0C0F00F06F8081EA03044EEAD47EE1
:104A6000AE4421EA4C1123EA4C1341F4801143F483
:104A70008013AEF17F7EA1FB024CA0FB03653619CB
:104A800055EB0C05A1FB034C4CF10003A0FB021CF1
:104A900016EB0C06654153F10003094218BF46F0BE
:104AA000010613F4007F0BD14FEA03314FEA0530C2
:104AB00041EA155140EA165034036FF003020AE050
:104AC0004FEAC3214FEAC52041EA555140EA56500A
:104AD000F4026FF0020202EB2E4201EB025585EA6E
:104AE000CE710AD05FEA440C18BF24F0004450F1A4
:104AF000000041F1000120EAD47040F2FE7C6245E2
:104B000000D270BDA84214BF4FF080444FF0404423
:104B1000002E08BF0024BEF1806FA8BFA1F1C041E4
:104B2000BDE8704080F2828001F1C04101F0004197
:104B30004FF0000070470CEA13159EEA0C0F18BFE7
:104B400095EA0C0F06D081EA030E4FF000000EF03C
:104B5000004170BD00F01CF88900013E00F007B86C
:104B600000F009B84FEA430C5FEA5C5C08D081EAC8
:104B7000030100F05BB84FEA410C5FEA5C5CF6D1E0
:104B800002494FF0000070470000FF070000F87F67
:104B90000EF1020E2EF0030E5EF8046B364205D4C1
:104BA000012A43EB030515F5001F12D8012841EB3C
:104BB000010C1CF5001F0CD80ED14FEAD17C0CEB78
:104BC0004C0C0CF1020C15F5001F08BF4CEBD37C0C
:104BD00004E04FF0080C01E04FEAD37C0CEB4C05ED
:104BE00026FA05F606F00706B6F1040C06D20EEB1F
:104BF000860CBDE870404CF0010C6047DFE80CF01B
:104C0000090B02024FF00041A1F500214FF0000016
:104C100070BD19461046012851EB010418BFD4F5A8
:104C2000001484BF002001F0004170BD0808A0F509
:104C300000114FEA3101704753EA010C17D41CF5FB
:104C4000801F58BFBCF5801F00F106808B4218BF43
:104C5000704708BF8242704707D713F5801F58BFBF
:104C600011F5801F19D48B4270479B4270471CF589
:104C7000801F08D5BCF5801FF7D5994218BF704733
:104C800008BF904270474FF4001C1CEB430F38BF25
:104C90001CEB410F01D2994270470FB40CBC03BC0E
:104CA000FFF7C1BE10B591EA030F81F000413FF557
:104CB000E9AB83F0004300F0D5B800002DE9F041E6
:104CC00001F5801CBCF5001FC0F2A9804FEA115C01
:104CD00021EA0C5141F480110CF1FD0C5FEA5C0CEF
:104CE0000CF5C07C01D340004941890241EA905152
:104CF00087022EA48E0EA45D0A0C04FB04F602FBB0
:104D000006F6C6F14046A4FB0662F60D46EA4226C8
:104D100006FB06F4A4FB01235242C3F1404338BF13
:104D20005B1EA6FB02420024E6FB0324D20B42EAF0
:104D30004446A6FB0623A1FB02E2A3FB07E4E3FB38
:104D400061426442C2F1404E38BFAEF1010EA6FB93
:104D500004234FF00002E6FB0E32A2FB03463400B0
:104D6000E2FB6264A1FB06E6A4FB07E8E4FB6168E2
:104D70007642C8F1405838BFA8F10108A2FB06E40A
:104D8000A3FB08E5E2FB6854A1FB05E6A7FB04E8EA
:104D9000E1FB648618F1200556F10006A80940EAF7
:104DA0008660B109A8F11B0808F03F08B8F10A0FA6
:104DB0001CD901EB0C51BDE8F08100BFFCF5EEE819
:104DC000E2DDD8D3CFCBC7C3C0BDB9B6B4B1AEACAA
:104DD000A9A7A5A3A19F9D9B9A9896959392908F22
:104DE0008D8C8B898887868584838281A0FB00686F
:104DF00000FB01F208EB4208B8EB872807D534180E
:104E000058EB0104D5D5401C51F10001D1E7341A0B
:104E100078EB0104CDD4401E71F10001C9E75FEACF
:104E20004C0C5FEA9C5C0DD105D301F000414FF0C2
:104E30000000BDE8F081BDE8F04170B5FFF7A8FEC5
:104E40006DDBFFBEBDE8F04101494FF00000704747
:104E50000000F87F10B591EA030F48BF83F00043CC
:104E60003FF510AB841A71EB030C07D28CF0004CA9
:104E7000121943EB0C03001B61EB0C014FEA1154B8
:104E8000A4EB135CDFF8A4E11EEA430F18BF9EEA0F
:104E9000445F00F0B48021EA045123EA6E035242D9
:104EA000C3EB6E0338BF5B1EDCF1200E25D322FA64
:104EB0000CFE10EB0E0043FA0CFE41EB0E01CCF1A0
:104EC000200E03FA0EFE10EB0E00CCF1200E51F175
:104ED000000129D401EB045112FA0EF2BDE8104092
:104EE00058BF7047401C1CBFB2F1004F70470028EC
:104EF0000CBF491C20F00100704712EB020E43EB7F
:104F0000030218BF4FF0010E4EEA4202ACF1200C32
:104F1000DCF11E0E56D943FA0CFE10EB0E00CCF15C
:104F20001E0E51F1FF31D5D50EF1010E12FA0EFE13
:104F3000404141EB010101EB445C5FEA5C5C10D94C
:104F400001EB045110EBDE7038BFBEF1004FBDE83D
:104F5000104018BF704700280CBF491C20F001000A
:104F6000704734D24FEAD42C24F4006411F50011B8
:104F70001BD0B1FA81F20B3AA41AA41ED2F120037D
:104F8000914030FA03F31943904001EBCC7101EBEF
:104F90000451002CBDE81040A8BF704701F1C0418A
:104FA00001F000414FF000007047B0FA80F310FAB2
:104FB00003F102D1BDE810407047E41A173C4805E0
:104FC000C90AE2E701EB0451BDE8104070474910FF
:104FD0004FEA300001EB0451BDE8104002E04FF011
:104FE000000170474A0008BF0042F8D0B2F5001F28
:104FF00028BF704701F000414FF0000070479EEA63
:10500000445F07D011EA5E0FBDE8104004BF0021E5
:1050100000207047BDE8104070B5FFF7B9FD00BF34
:1050200040DFF63E104683F0004170470000E0FF8D
:1050300043004FEAD30C4FEA3C0C43401FBF4007EC
:105040000CF1605113F0FE4F70471CF0006F03D15C
:105050000CF00041002070470CF0004343EA507010
:1050600040EACC0010B500F0DCFA00BF000000926E
:105070004FEA0001FFF7DABD4FF00041A1F5002132
:105080004FF000007047000090EA010F48BF81F028
:10509000004100F11883421A3CBF801A89184FEA78
:1050A000D052A2EBD1534FF07F4C1CEA410F18BFF6
:1050B0009CEA026F00F03B804FF0004C4CEA00206D
:1050C0004CEA012121FA03FC10EB0C0C1ED202F178
:1050D000FF325FEA1C2040EBC25038BF70471CF023
:1050E0007F0F4FEA400C18BFBCF17F4F38BF7047AD
:1050F000C3F12003994008BF20F00100BCF17F4FAD
:1051000038BF7047A0F1C04000F0D1BA4FEA3C0070
:10511000000A40EBC25028BF1CF0FF0F4FEA400CC2
:10512000E6D018BFBCF17F4F38BF7047EAE79CEA72
:10513000026F05D010EA5C0F08BF00F00040704716
:1051400010B500F06EFA00BF64FBBE3E10B5FFF76D
:10515000A9FB0CBF0120002010BD10B5FFF7A2FB7A
:1051600014BF0120002010BD10B5FFF7EFFB8CBF6E
:105170000120002010BD10B5FFF7E8FB2CBF012077
:10518000002010BD10B5FFF71DFC94BF01200020CA
:1051900010BD10B5FFF716FC34BF0120002010BD74
:1051A00010B500F0F5F80CBF0120002010BD10B5BF
:1051B00000F0EEF814BF0120002010BD10B500F083
:1051C00047F98CBF0120002010BD10B500F040F958
:1051D0002CBF0120002010BD10B500F06DF994BF68
:1051E0000120002010BD10B500F066F934BF012089
:1051F000002010BD401058BFC0F14040491058BFBA
:10520000C1F140418142EFF3008070474FF47F0CC1
:105210001CEAD0121EBF1CEAD11392EA0C0F93EACB
:105220000C0F00F0858090EA010F48BF42F48072B5
:1052300040F4000C41F400002CF07F4120F07F404E
:1052400000B5A2EB030281420FF2081CACEB504EFA
:105250009EF800E0C0F100004FEA4E0E00FB0EFC8D
:1052600038BF49004FEA2C1C0CFB0EF34FEACE1E50
:105270000EEB635E4FEA112C0EFB0CFC4FEAC121D2
:105280004FEA1C5300FB031102F5FA024FEA112CFE
:105290000EFB0CFC4FEA01314FEADC4C00FB0C1119
:1052A00042EB2242C14228BF09184CEB03335DF8A0
:1052B00004EB10EB410143EBC250B2F57C0F38BF59
:1052C000704729D512F0F00F1CBF00F1C04000F06C
:1052D00000407047008182838485868788898B8C13
:1052E0008D8E8F919293959697999A9C9D9FA0A24F
:1052F000A3A5A7A8AAACAEB0B2B3B5B7B9BCBEC09F
:10530000C2C5C7C9CCCED1D4D7D9DCDFE2E6E9EC3F
:10531000F0F3F7FAFE0000004FEA400C0CF1807C3D
:10532000BCF17E4F28BF7047B0F1C04000F0BFB95C
:105330000CEAD11390EA010F48BF42F48072624533
:1053400038BF634507D213F47F0F16D080EA0100FF
:1053500000F00040704710B500F063F9097EFC3E94
:1053600000F005B880EA010000F00040704780EAD4
:10537000010000F0004000F09AB912F47F0F04BF62
:105380000248704780EA010000F091B90000C07F38
:1053900050EA010C00F113801CF5000F58BFBCF55A
:1053A000000F01D48842704707D710F5000F58BF8F
:1053B00011F5000F15D488427047894270471CF5DB
:1053C000000F04D5BCF5000FF7D5814270474FF0B0
:1053D000807C1CEB400F38BF1CEB410F01D2814297
:1053E000704710B500F01DF9922449004FF00050AD
:1053F0004FF08051FFF7FEBE10F0004148BF404221
:10540000B0FA80F310FA03F2C3F19D030BD051EA16
:10541000C35101EB1220530638BF704700F1010061
:1054200008BF20F001007047B0FA80F310FA03F2D1
:10543000C3F19D030AD0D90501EB1220530638BFF2
:10544000704700F1010008BF20F001007047000024
:1054500050EA010C00F113801CF5000F58BFBCF599
:10546000000F01D48842704707D710F5000F58BFCE
:1054700011F5000F15D488427047894270471CF51A
:10548000000F04D5BCF5000FF7D5814270474FF0EF
:10549000807C1CEB400F38BF1CEB410F01D28142D6
:1054A000704710B500F0BDF8922449004FF08050CD
:1054B0004FF00051FFF79EBE50EA010C00F113803F
:1054C0001CF5000F58BFBCF5000F01D4884270478F
:1054D00007D710F5000F58BF11F5000F15D48842FB
:1054E0007047894270471CF5000F04D5BCF5000FCA
:1054F000F7D5814270474FF0807C1CEB400F38BFDE
:105500001CEB410F01D28142704710B500F089F8C1
:10551000922449004FF000504FF08051FFF76ABECF
:105520004FF47F0C1CEAD0121EBF1CEAD11392EA82
:105530000C0F93EA0C0F00F0478090EA010F48BF70
:1055400042F480724FF0004C4CEA00204CEA0121FA
:1055500002EB0302A0FB0113A2F50002002918BF11
:1055600043F001035B0028BF4FEA330342EB2242C2
:105570005FEA132C4CEBC2502EBFBCEB436FB2F56D
:105580007C0F70474FEA036CBCF1004F08BF20F05E
:105590000100B2F57C0F38BF70470BD582F0FF02D7
:1055A00012F5803FC8BF704700F1C040D8BF00F07F
:1055B0000040704700F5000C5FEA4C0C48BF704794
:1055C000B0F1C04000F073B80CEAD11390EA010FBB
:1055D00048BF42F48072624538BF634504D280EA16
:1055E000010000F00040704710B500F01AF800BF4D
:1055F0008900013E00F007B800F009B85FEA410CED
:105600005FEA1C6C08D080EA010000F050B85FEA45
:10561000400C5FEA1C6CF6D14FF00040A0F5800012
:1056200070470EF1020E2EF0030E5EF8044B24427A
:1056300004D44FEA4102B2F17F4F11D84FEA400340
:10564000B3F17F4F0CD80ED14FEAD07C0CEB4C0C51
:105650000CF1020CB2F17F4F08BF4CEBD17C04E09F
:105660004FF0080C01E04FEAD17C0CEB4C0324FA1C
:1056700003F404F00704B4F1040C06D20EEB840C1E
:10568000BDE810404CF0010C6047DFE80CF0070863
:1056900002024FF00040A0F5800010BD0846420015
:1056A00018BFD2F1807288BF00F0004010BDFF210A
:1056B00041EAD050C005704790EA010F48BF81F021
:1056C00000413FF5E8AC421A04D882F00042A0EB5A
:1056D000020011444FEAD052A2EBD1534FF07F4C5D
:1056E0001CEA410F18BF9CEA026F4AD04FF0004CF1
:1056F0004CEA00204CEA012121FA03FCB0EB0C0C2F
:105700000FD412F0FE0F36D05FEA4C001DD5001208
:1057100040EBC25038BF70471CF03F0F18BF7047B6
:105720000BE05FEA1C20A2F1010240EBC25038BF3F
:1057300070471CF07F0F18BF7047C3F120039940DA
:1057400014BF401E20F0010070474FEA122380086A
:1057500008BF7047B0FA80FCA2EB0C02CCF1280C19
:1057600060FA0CF093EA122F04BF00EBC2507047AE
:105770004FEAC3707047130A5FEADC1008BF704736
:10578000F6E79CEA026F04D010EA5C0F08BF002025
:10579000704710B5FFF745FF40DFF63E81F000404F
:1057A0007047FBF7B5BAFBF7E9BB0CF00F03092B09
:1057B00008BF082000F059800A2B0BD0082B18BF17
:1057C000704708BF1CF0400F0AD04FF000004FF0A8
:1057D000000170471CF0400F18BF4FF000407047A9
:1057E0001CF0100F08D000F07F4220F0704342EA16
:1057F000D3014FEA4370704700F0604021F07F42D0
:1058000042EA000201F07F4040EA727070474FF0B8
:10581000FF0C4CF4E06C1CEA11531CBF9CEA030C17
:105820009445C2BFDA4201EB02517047002B0DD004
:10583000BCF1000F0FD001F00041002AA4BF41F0DD
:10584000E04141F07F614FF00000704701F00041FE
:105850004FF00000704750EA01334FF09B0C18BF27
:105860004CF0806C7EF4AEAE70471CF4801F11D0FB
:105870001CF4E02F03D06FEACC31490070474FF0A1
:105880004050EFF3008222F0704242EA000282F3BD
:10589000008870474FF000007047000000000000D3
:1058A0004FBB610567ACDD3F182D4454FB21E93F38
:1058B0009BF681D20B73EF3F182D4454FB21F93F27
:1058C000E2652F227F2B7A3C075C143326A6813CAD
:1058D000BDCBF07A8807703C075C143326A6913C58
:1058E000C4EB98999999C9BF711623FEC671BCBFC4
:1058F0006D9A74AFF2B0B3BF9AFDDE522DDEADBF2C
:105900002F6C6A2C44B4A2BF0D5555555555D53F43
:10591000FF8300922449C23F6E204CC5CD45B73F5E
:10592000513DD0A0660DB13FEB0D76244B7BA93FD6
:1059300011DA22E33AAD903F000000000000F03F92
:10594000000000000000F83F000000000000000020
:105950000000004003B8E23F00000000000000002B
:1059600006D0CF43EBFD4C3E033333333333E33FB9
:10597000FFAB6FDBB66DDB3F4D268F515555D53FE5
:1059800001411DA96074D13F65DBC9934A86CD3FB3
:10599000EF4E454A287ECA3F3E5555555555C53FA1
:1059A00093BDBE166CC166BF2CDE25AF6A56113F93
:1059B000F16BD2C541BDBBBED0A4BE726937663E95
:1059C000000000000000000030313233343536373B
:1059D0003839414243444546403058003031323333
:1059E0003435363738396162636465664030780033
:1059F0000400000800000000000000020001000098
:105A00001000000000000000000000000000000086
:105A10003031323334353637383961626364656624
:105A200078700030313233343536373839414243BB
:105A3000444546585000000002400000000000A00D
:105A40000000000005400000000000C80000000049
:105A50000C4000000000409C0000000019400000C5
:105A60000020BCBE0000000034400000BFC91B8EF7
:105A700000000004B5400000504BCFD06607E2CFD5
:105A8000010000006C4100003E8251AADFEEA73405
:105A900001000000D9420000DCB5A0E23A301F97B7
:105AA000FFFFFFFFB4450000FD25A0C8E9A3C14FDB
:105AB000FFFFFFFFFF3F000000000080000000002C
:105AC000FF3F000000000080000000000208040A00
:105AD0000C060E005265736574204D5055363035F6
